{
  "_format": "hh-sol-artifact-1",
  "contractName": "Wall",
  "sourceName": "contracts/Wall.sol",
  "abi": [
    {
      "inputs": [],
      "stateMutability": "payable",
      "type": "constructor"
    },
    {
      "anonymous": false,
      "inputs": [
        {
          "indexed": true,
          "internalType": "address",
          "name": "from",
          "type": "address"
        },
        {
          "indexed": false,
          "internalType": "uint256",
          "name": "timestamp",
          "type": "uint256"
        },
        {
          "indexed": false,
          "internalType": "string",
          "name": "message",
          "type": "string"
        }
      ],
      "name": "NewPost",
      "type": "event"
    },
    {
      "inputs": [],
      "name": "getAllPosts",
      "outputs": [
        {
          "components": [
            {
              "internalType": "address",
              "name": "user",
              "type": "address"
            },
            {
              "internalType": "uint256",
              "name": "timestamp",
              "type": "uint256"
            },
            {
              "internalType": "string",
              "name": "message",
              "type": "string"
            }
          ],
          "internalType": "struct Wall.Post[]",
          "name": "",
          "type": "tuple[]"
        }
      ],
      "stateMutability": "view",
      "type": "function"
    },
    {
      "inputs": [],
      "name": "getTotalPosts",
      "outputs": [
        {
          "internalType": "uint256",
          "name": "",
          "type": "uint256"
        }
      ],
      "stateMutability": "view",
      "type": "function"
    },
    {
      "inputs": [
        {
          "internalType": "address",
          "name": "",
          "type": "address"
        }
      ],
      "name": "lastPostedAt",
      "outputs": [
        {
          "internalType": "uint256",
          "name": "",
          "type": "uint256"
        }
      ],
      "stateMutability": "view",
      "type": "function"
    },
    {
      "inputs": [
        {
          "internalType": "string",
          "name": "_message",
          "type": "string"
        }
      ],
      "name": "post",
      "outputs": [],
      "stateMutability": "nonpayable",
      "type": "function"
    }
  ],
  "bytecode": "0x608060405262000033604051806060016040528060258152602001620014b7602591396200005b60201b620006871760201c565b60644442620000439190620001a8565b6200004f919062000245565b600181905550620002ec565b620000fb8160405160240162000072919062000168565b6040516020818303038152906040527f41304fac000000000000000000000000000000000000000000000000000000007bffffffffffffffffffffffffffffffffffffffffffffffffffffffff19166020820180517bffffffffffffffffffffffffffffffffffffffffffffffffffffffff8381831617835250505050620000fe60201b60201c565b50565b60008151905060006a636f6e736f6c652e6c6f679050602083016000808483855afa5050505050565b600062000134826200018c565b62000140818562000197565b9350620001528185602086016200020f565b6200015d81620002db565b840191505092915050565b6000602082019050818103600083015262000184818462000127565b905092915050565b600081519050919050565b600082825260208201905092915050565b6000620001b58262000205565b9150620001c28362000205565b9250827fffffffffffffffffffffffffffffffffffffffffffffffffffffffffffffffff03821115620001fa57620001f96200027d565b5b828201905092915050565b6000819050919050565b60005b838110156200022f57808201518184015260208101905062000212565b838111156200023f576000848401525b50505050565b6000620002528262000205565b91506200025f8362000205565b925082620002725762000271620002ac565b5b828206905092915050565b7f4e487b7100000000000000000000000000000000000000000000000000000000600052601160045260246000fd5b7f4e487b7100000000000000000000000000000000000000000000000000000000600052601260045260246000fd5b6000601f19601f8301169050919050565b6111bb80620002fc6000396000f3fe608060405234801561001057600080fd5b506004361061004c5760003560e01c8063305611001461005157806351493c4f1461006f5780635fe226b41461009f5780638ee93cf3146100bd575b600080fd5b6100596100d9565b6040516100669190610c33565b60405180910390f35b610089600480360381019061008491906109a1565b61022a565b6040516100969190610d37565b60405180910390f35b6100a7610242565b6040516100b49190610d37565b60405180910390f35b6100d760048036038101906100d291906109ca565b61028d565b005b60606002805480602002602001604051908101604052809291908181526020016000905b8282101561022157838290600052602060002090600302016040518060600160405290816000820160009054906101000a900473ffffffffffffffffffffffffffffffffffffffff1673ffffffffffffffffffffffffffffffffffffffff1673ffffffffffffffffffffffffffffffffffffffff1681526020016001820154815260200160028201805461019090610f1d565b80601f01602080910402602001604051908101604052809291908181526020018280546101bc90610f1d565b80156102095780601f106101de57610100808354040283529160200191610209565b820191906000526020600020905b8154815290600101906020018083116101ec57829003601f168201915b505050505081525050815260200190600101906100fd565b50505050905090565b60036020528060005260406000206000915090505481565b60006102856040518060400160405280601781526020017f5765206861766520256420746f74616c20706f73747321000000000000000000815250600054610720565b600054905090565b42601e600360003373ffffffffffffffffffffffffffffffffffffffff1673ffffffffffffffffffffffffffffffffffffffff168152602001908152602001600020546102da9190610e49565b1061031a576040517f08c379a000000000000000000000000000000000000000000000000000000000815260040161031190610d17565b60405180910390fd5b42600360003373ffffffffffffffffffffffffffffffffffffffff1673ffffffffffffffffffffffffffffffffffffffff1681526020019081526020016000208190555060016000808282546103709190610e49565b925050819055506103b66040518060400160405280600e81526020017f25732068617320706f7374656421000000000000000000000000000000000000815250336107bc565b600260405180606001604052803373ffffffffffffffffffffffffffffffffffffffff16815260200142815260200183815250908060018154018082558091505060019003906000526020600020906003020160009091909190915060008201518160000160006101000a81548173ffffffffffffffffffffffffffffffffffffffff021916908373ffffffffffffffffffffffffffffffffffffffff16021790555060208201518160010155604082015181600201908051906020019061047f929190610881565b505050606460015442446104939190610e49565b61049d9190610e49565b6104a79190610f80565b6001819055506104ee6040518060400160405280601681526020017f52616e646f6d20232067656e6572617465643a20256400000000000000000000815250600154610720565b603260015411610634576105376040518060400160405280600781526020017f257320776f6e2100000000000000000000000000000000000000000000000000815250336107bc565b6000655af3107a4000905047811115610585576040517f08c379a000000000000000000000000000000000000000000000000000000000815260040161057c90610cd7565b60405180910390fd5b60003373ffffffffffffffffffffffffffffffffffffffff16826040516105ab90610c1e565b60006040518083038185875af1925050503d80600081146105e8576040519150601f19603f3d011682016040523d82523d6000602084013e6105ed565b606091505b5050905080610631576040517f08c379a000000000000000000000000000000000000000000000000000000000815260040161062890610cf7565b60405180910390fd5b50505b3373ffffffffffffffffffffffffffffffffffffffff167fd8c86c7877c3f1f8a40af6cf64a11fe867af887f2a1ad31aac849e36730425b0428360405161067c929190610d52565b60405180910390a250565b61071d8160405160240161069b9190610c55565b6040516020818303038152906040527f41304fac000000000000000000000000000000000000000000000000000000007bffffffffffffffffffffffffffffffffffffffffffffffffffffffff19166020820180517bffffffffffffffffffffffffffffffffffffffffffffffffffffffff8381831617835250505050610858565b50565b6107b88282604051602401610736929190610ca7565b6040516020818303038152906040527f9710a9d0000000000000000000000000000000000000000000000000000000007bffffffffffffffffffffffffffffffffffffffffffffffffffffffff19166020820180517bffffffffffffffffffffffffffffffffffffffffffffffffffffffff8381831617835250505050610858565b5050565b61085482826040516024016107d2929190610c77565b6040516020818303038152906040527f319af333000000000000000000000000000000000000000000000000000000007bffffffffffffffffffffffffffffffffffffffffffffffffffffffff19166020820180517bffffffffffffffffffffffffffffffffffffffffffffffffffffffff8381831617835250505050610858565b5050565b60008151905060006a636f6e736f6c652e6c6f679050602083016000808483855afa5050505050565b82805461088d90610f1d565b90600052602060002090601f0160209004810192826108af57600085556108f6565b82601f106108c857805160ff19168380011785556108f6565b828001600101855582156108f6579182015b828111156108f55782518255916020019190600101906108da565b5b5090506109039190610907565b5090565b5b80821115610920576000816000905550600101610908565b5090565b600061093761093284610da7565b610d82565b90508281526020810184848401111561094f57600080fd5b61095a848285610edb565b509392505050565b6000813590506109718161116e565b92915050565b600082601f83011261098857600080fd5b8135610998848260208601610924565b91505092915050565b6000602082840312156109b357600080fd5b60006109c184828501610962565b91505092915050565b6000602082840312156109dc57600080fd5b600082013567ffffffffffffffff8111156109f657600080fd5b610a0284828501610977565b91505092915050565b6000610a178383610bb0565b905092915050565b610a2881610e9f565b82525050565b610a3781610e9f565b82525050565b6000610a4882610de8565b610a528185610e0b565b935083602082028501610a6485610dd8565b8060005b85811015610aa05784840389528151610a818582610a0b565b9450610a8c83610dfe565b925060208a01995050600181019050610a68565b50829750879550505050505092915050565b6000610abd82610df3565b610ac78185610e27565b9350610ad7818560208601610eea565b610ae08161106d565b840191505092915050565b6000610af682610df3565b610b008185610e38565b9350610b10818560208601610eea565b610b198161106d565b840191505092915050565b6000610b31603483610e38565b9150610b3c8261107e565b604082019050919050565b6000610b54602783610e38565b9150610b5f826110cd565b604082019050919050565b6000610b77603083610e38565b9150610b828261111c565b604082019050919050565b6000610b9a600083610e1c565b9150610ba58261116b565b600082019050919050565b6000606083016000830151610bc86000860182610a1f565b506020830151610bdb6020860182610c00565b5060408301518482036040860152610bf38282610ab2565b9150508091505092915050565b610c0981610ed1565b82525050565b610c1881610ed1565b82525050565b6000610c2982610b8d565b9150819050919050565b60006020820190508181036000830152610c4d8184610a3d565b905092915050565b60006020820190508181036000830152610c6f8184610aeb565b905092915050565b60006040820190508181036000830152610c918185610aeb565b9050610ca06020830184610a2e565b9392505050565b60006040820190508181036000830152610cc18185610aeb565b9050610cd06020830184610c0f565b9392505050565b60006020820190508181036000830152610cf081610b24565b9050919050565b60006020820190508181036000830152610d1081610b47565b9050919050565b60006020820190508181036000830152610d3081610b6a565b9050919050565b6000602082019050610d4c6000830184610c0f565b92915050565b6000604082019050610d676000830185610c0f565b8181036020830152610d798184610aeb565b90509392505050565b6000610d8c610d9d565b9050610d988282610f4f565b919050565b6000604051905090565b600067ffffffffffffffff821115610dc257610dc161103e565b5b610dcb8261106d565b9050602081019050919050565b6000819050602082019050919050565b600081519050919050565b600081519050919050565b6000602082019050919050565b600082825260208201905092915050565b600081905092915050565b600082825260208201905092915050565b600082825260208201905092915050565b6000610e5482610ed1565b9150610e5f83610ed1565b9250827fffffffffffffffffffffffffffffffffffffffffffffffffffffffffffffffff03821115610e9457610e93610fb1565b5b828201905092915050565b6000610eaa82610eb1565b9050919050565b600073ffffffffffffffffffffffffffffffffffffffff82169050919050565b6000819050919050565b82818337600083830152505050565b60005b83811015610f08578082015181840152602081019050610eed565b83811115610f17576000848401525b50505050565b60006002820490506001821680610f3557607f821691505b60208210811415610f4957610f4861100f565b5b50919050565b610f588261106d565b810181811067ffffffffffffffff82111715610f7757610f7661103e565b5b80604052505050565b6000610f8b82610ed1565b9150610f9683610ed1565b925082610fa657610fa5610fe0565b5b828206905092915050565b7f4e487b7100000000000000000000000000000000000000000000000000000000600052601160045260246000fd5b7f4e487b7100000000000000000000000000000000000000000000000000000000600052601260045260246000fd5b7f4e487b7100000000000000000000000000000000000000000000000000000000600052602260045260246000fd5b7f4e487b7100000000000000000000000000000000000000000000000000000000600052604160045260246000fd5b6000601f19601f8301169050919050565b7f547279696e6720746f207769746864726177206d6f7265206d6f6e657920746860008201527f616e2074686520636f6e7472616374206861732e000000000000000000000000602082015250565b7f4661696c656420746f207769746864726177206d6f6e65792066726f6d20636f60008201527f6e74726163742e00000000000000000000000000000000000000000000000000602082015250565b7f596f75206e65656420746f2077616974203330207365636f6e6473206265666f60008201527f726520706f7374696e6720616761696e00000000000000000000000000000000602082015250565b50565b61117781610e9f565b811461118257600080fd5b5056fea264697066735822122002c33c842cb0ce33f8984de17ae38a8ff51b8278bf484acf9b34f4c4c96ea72164736f6c63430008040033596f20796f2c204920616d206120636f6e747261637420616e64204920616d20736d617274",
  "linkReferences": {},
  "deployedLinkReferences": {}
}