{
  "_format": "hh-sol-artifact-1",
  "contractName": "Web3Wall",
  "sourceName": "contracts/Web3Wall.sol",
  "abi": [
    {
      "inputs": [],
      "stateMutability": "payable",
      "type": "constructor"
    },
    {
      "anonymous": false,
      "inputs": [
        {
          "indexed": true,
          "internalType": "address",
          "name": "fromUser",
          "type": "address"
        },
        {
          "indexed": false,
          "internalType": "uint256",
          "name": "timestamp",
          "type": "uint256"
        },
        {
          "indexed": false,
          "internalType": "string",
          "name": "message",
          "type": "string"
        }
      ],
      "name": "NewPost",
      "type": "event"
    },
    {
      "inputs": [
        {
          "internalType": "string",
          "name": "_message",
          "type": "string"
        }
      ],
      "name": "createPost",
      "outputs": [],
      "stateMutability": "nonpayable",
      "type": "function"
    },
    {
      "inputs": [],
      "name": "getAllPosts",
      "outputs": [
        {
          "components": [
            {
              "internalType": "address",
              "name": "fromUser",
              "type": "address"
            },
            {
              "internalType": "uint256",
              "name": "timestamp",
              "type": "uint256"
            },
            {
              "internalType": "string",
              "name": "message",
              "type": "string"
            }
          ],
          "internalType": "struct Web3Wall.Post[]",
          "name": "",
          "type": "tuple[]"
        }
      ],
      "stateMutability": "view",
      "type": "function"
    },
    {
      "inputs": [],
      "name": "getTotalPosts",
      "outputs": [
        {
          "internalType": "uint256",
          "name": "",
          "type": "uint256"
        }
      ],
      "stateMutability": "view",
      "type": "function"
    },
    {
      "inputs": [
        {
          "internalType": "address",
          "name": "",
          "type": "address"
        }
      ],
      "name": "lastPostedAt",
      "outputs": [
        {
          "internalType": "uint256",
          "name": "",
          "type": "uint256"
        }
      ],
      "stateMutability": "view",
      "type": "function"
    },
    {
      "inputs": [],
      "name": "totalPosts",
      "outputs": [
        {
          "internalType": "uint256",
          "name": "",
          "type": "uint256"
        }
      ],
      "stateMutability": "view",
      "type": "function"
    }
  ],
  "bytecode": "0x6080604052620000146200002060201b60201c565b60018190555062000140565b60006064444262000032919062000043565b6200003e9190620000aa565b905090565b60006200005082620000a0565b91506200005d83620000a0565b9250827fffffffffffffffffffffffffffffffffffffffffffffffffffffffffffffffff03821115620000955762000094620000e2565b5b828201905092915050565b6000819050919050565b6000620000b782620000a0565b9150620000c483620000a0565b925082620000d757620000d662000111565b5b828206905092915050565b7f4e487b7100000000000000000000000000000000000000000000000000000000600052601160045260246000fd5b7f4e487b7100000000000000000000000000000000000000000000000000000000600052601260045260246000fd5b610e3b80620001506000396000f3fe608060405234801561001057600080fd5b50600436106100575760003560e01c8063305611001461005c57806351493c4f1461007a5780635fe226b4146100aa5780638e53fb41146100c8578063c7303c61146100e6575b600080fd5b610064610102565b6040516100719190610a4b565b60405180910390f35b610094600480360381019061008f91906106e2565b610253565b6040516100a19190610acd565b60405180910390f35b6100b261026b565b6040516100bf9190610acd565b60405180910390f35b6100d0610274565b6040516100dd9190610acd565b60405180910390f35b61010060048036038101906100fb919061070b565b61027a565b005b60606002805480602002602001604051908101604052809291908181526020016000905b8282101561024a57838290600052602060002090600302016040518060600160405290816000820160009054906101000a900473ffffffffffffffffffffffffffffffffffffffff1673ffffffffffffffffffffffffffffffffffffffff1673ffffffffffffffffffffffffffffffffffffffff168152602001600182015481526020016002820180546101b990610cbe565b80601f01602080910402602001604051908101604052809291908181526020018280546101e590610cbe565b80156102325780601f1061020757610100808354040283529160200191610232565b820191906000526020600020905b81548152906001019060200180831161021557829003601f168201915b50505050508152505081526020019060010190610126565b50505050905090565b60036020528060005260406000206000915090505481565b60008054905090565b60005481565b4261a8c0600360003373ffffffffffffffffffffffffffffffffffffffff1673ffffffffffffffffffffffffffffffffffffffff168152602001908152602001600020546102c89190610bea565b10610308576040517f08c379a00000000000000000000000000000000000000000000000000000000081526004016102ff90610a6d565b60405180910390fd5b42600360003373ffffffffffffffffffffffffffffffffffffffff1673ffffffffffffffffffffffffffffffffffffffff16815260200190815260200160002081905550600160008082825461035e9190610bea565b92505081905550600260405180606001604052803373ffffffffffffffffffffffffffffffffffffffff16815260200142815260200183815250908060018154018082558091505060019003906000526020600020906003020160009091909190915060008201518160000160006101000a81548173ffffffffffffffffffffffffffffffffffffffff021916908373ffffffffffffffffffffffffffffffffffffffff16021790555060208201518160010155604082015181600201908051906020019061042e9291906105c2565b50505061043961048c565b3373ffffffffffffffffffffffffffffffffffffffff167fd8c86c7877c3f1f8a40af6cf64a11fe867af887f2a1ad31aac849e36730425b04283604051610481929190610ae8565b60405180910390a250565b6104946105a3565b6001819055506032600154116105a1576000655af3107a40009050478111156104f2576040517f08c379a00000000000000000000000000000000000000000000000000000000081526004016104e990610aad565b60405180910390fd5b60003373ffffffffffffffffffffffffffffffffffffffff168260405161051890610a36565b60006040518083038185875af1925050503d8060008114610555576040519150601f19603f3d011682016040523d82523d6000602084013e61055a565b606091505b505090508061059e576040517f08c379a000000000000000000000000000000000000000000000000000000000815260040161059590610a8d565b60405180910390fd5b50505b565b6000606444426105b39190610bea565b6105bd9190610cf0565b905090565b8280546105ce90610cbe565b90600052602060002090601f0160209004810192826105f05760008555610637565b82601f1061060957805160ff1916838001178555610637565b82800160010185558215610637579182015b8281111561063657825182559160200191906001019061061b565b5b5090506106449190610648565b5090565b5b80821115610661576000816000905550600101610649565b5090565b600061067861067384610b49565b610b18565b90508281526020810184848401111561069057600080fd5b61069b848285610c7c565b509392505050565b6000813590506106b281610dee565b92915050565b600082601f8301126106c957600080fd5b81356106d9848260208601610665565b91505092915050565b6000602082840312156106f457600080fd5b6000610702848285016106a3565b91505092915050565b60006020828403121561071d57600080fd5b600082013567ffffffffffffffff81111561073757600080fd5b610743848285016106b8565b91505092915050565b600061075883836109c8565b905092915050565b61076981610c40565b82525050565b600061077a82610b89565b6107848185610bac565b93508360208202850161079685610b79565b8060005b858110156107d257848403895281516107b3858261074c565b94506107be83610b9f565b925060208a0199505060018101905061079a565b50829750879550505050505092915050565b60006107ef82610b94565b6107f98185610bc8565b9350610809818560208601610c8b565b61081281610ddd565b840191505092915050565b600061082882610b94565b6108328185610bd9565b9350610842818560208601610c8b565b61084b81610ddd565b840191505092915050565b6000610863604283610bd9565b91507f596f75206e65656420746f207761697420313220686f7572732066726f6d207960008301527f6f7572206c61737420706f7374206265666f726520706f7374696e672061676160208301527f696e0000000000000000000000000000000000000000000000000000000000006040830152606082019050919050565b60006108ef602683610bd9565b91507f4661696c656420746f207769746864726177206d6f6e65792066726f6d20636f60008301527f6e747261637400000000000000000000000000000000000000000000000000006020830152604082019050919050565b6000610955600083610bbd565b9150600082019050919050565b600061096f603383610bd9565b91507f547279696e6720746f207769746864726177206d6f7265206d6f6e657920746860008301527f616e2074686520636f6e747261637420686173000000000000000000000000006020830152604082019050919050565b60006060830160008301516109e06000860182610760565b5060208301516109f36020860182610a18565b5060408301518482036040860152610a0b82826107e4565b9150508091505092915050565b610a2181610c72565b82525050565b610a3081610c72565b82525050565b6000610a4182610948565b9150819050919050565b60006020820190508181036000830152610a65818461076f565b905092915050565b60006020820190508181036000830152610a8681610856565b9050919050565b60006020820190508181036000830152610aa6816108e2565b9050919050565b60006020820190508181036000830152610ac681610962565b9050919050565b6000602082019050610ae26000830184610a27565b92915050565b6000604082019050610afd6000830185610a27565b8181036020830152610b0f818461081d565b90509392505050565b6000604051905081810181811067ffffffffffffffff82111715610b3f57610b3e610dae565b5b8060405250919050565b600067ffffffffffffffff821115610b6457610b63610dae565b5b601f19601f8301169050602081019050919050565b6000819050602082019050919050565b600081519050919050565b600081519050919050565b6000602082019050919050565b600082825260208201905092915050565b600081905092915050565b600082825260208201905092915050565b600082825260208201905092915050565b6000610bf582610c72565b9150610c0083610c72565b9250827fffffffffffffffffffffffffffffffffffffffffffffffffffffffffffffffff03821115610c3557610c34610d21565b5b828201905092915050565b6000610c4b82610c52565b9050919050565b600073ffffffffffffffffffffffffffffffffffffffff82169050919050565b6000819050919050565b82818337600083830152505050565b60005b83811015610ca9578082015181840152602081019050610c8e565b83811115610cb8576000848401525b50505050565b60006002820490506001821680610cd657607f821691505b60208210811415610cea57610ce9610d7f565b5b50919050565b6000610cfb82610c72565b9150610d0683610c72565b925082610d1657610d15610d50565b5b828206905092915050565b7f4e487b7100000000000000000000000000000000000000000000000000000000600052601160045260246000fd5b7f4e487b7100000000000000000000000000000000000000000000000000000000600052601260045260246000fd5b7f4e487b7100000000000000000000000000000000000000000000000000000000600052602260045260246000fd5b7f4e487b7100000000000000000000000000000000000000000000000000000000600052604160045260246000fd5b6000601f19601f8301169050919050565b610df781610c40565b8114610e0257600080fd5b5056fea26469706673582212202d2a3035c6aae4317fa57e9f2e8df9297535f0378d3f9a05161d62dea86f722364736f6c63430008000033",
  "linkReferences": {},
  "deployedLinkReferences": {}
}